:03000000020800F3
:0C080000787FE4F6D8FD75811F020847E0
:100A21000808FEFDFBF7EFDFBF7F0810FEFCF8F0C2
:0E0A3100E0C0800008187F3F1F0F0703010080
:0A0AA200E4F580F590F5A0F5B02210
:0D0A7E007580FF7590FF75A0FF75B0FF2219
:0E0A6F0000007F057E347DC3DDFEDEFCDFFA75
:010A7D002256
:050A5B002BF8E6F59008
:0E0A600000007F017ED87D23DDFEDEFCDFFA84
:010A6E002265
:100A4000E4FBFA120AA2120A6F120A7E120A6F0B54
:0A0A5000BB00010AEB64034A70E9E1
:010A5A002279
:1008FE00E4FBFA7408120A5B0BBB00010AEB6408F6
:10090E004A70F07590FFE4FAFB74082BF8E6F5B028
:10091E00120A600BBB00010AEB64084A70EB75B05B
:10092E00FFE4FAFB74082BF8E6F5A0120A600BBB85
:10093E0000010AEB64084A70EB75A0FFE4FAFBC3F2
:10094E0074079B2408F8E6F580120A600BBB0001C1
:0A095E000AEB64084A70E87580FF98
:01096800226C
:10088C00E4FBFA74082BF8E6F580120A600BBB0047
:10089C00010AEB64084A70EB7580FFE4FAFBC37441
:1008AC00079B2408F8E6F5A0120A600BBB00010AAE
:1008BC00EB64084A70E875A0FFE4FAFBC374079B6D
:1008CC002408F8E6F5B0120A600BBB00010AEB64D1
:1008DC00084A70E875B0FFE4FAFBC374079B240860
:1008EC00120A5C0BBB00010AEB64084A70EC7590B1
:0108FC00FFFC
:0108FD0022D8
:090AAC001208FE12088C020A7EF9
:10096900E4FBFA7410120A5B0BBB00010AEB640882
:100979004A70F0E4FAFB74102BF8E6F5B0120A603D
:100989000BBB00010AEB64084A70EBE4FAFB741034
:100999002BF8E6F5A0120A600BBB00010AEB64080C
:1009A9004A70EBE4FAFB74182BF8E6F580120A603A
:0B09B9000BBB00010AEB64084A70EB66
:0109C4002210
:1009C500E4FBFA74102BF8E6F580120A600BBB0005
:1009D500010AEB64084A70EBE4FAFB74182BF8E69D
:1009E500F5A0120A600BBB00010AEB64084A70EB24
:1009F500E4FAFB74182BF8E6F5B0120A600BBB009D
:100A0500010AEB64084A70EBE4FAFB7418120A5BFE
:0B0A15000BBB00010AEB64084A70F004
:010A200022B3
:0C0A8B00120969120A7E1209C5020A7ED7
:0B0A9700120A40120AAC120A8B80F514
:10080C00020A97E493A3F8E493A34003F68001F261
:10081C0008DFF48029E493A3F85407240CC8C333ED
:10082C00C4540F4420C8834004F456800146F6DFBC
:10083C00E4800B0102040810204080900A21E47E21
:10084C00019360BCA3FF543F30E509541FFEE493B1
:10085C00A360010ECF54C025E060A840B8E493A378
:10086C00FAE493A3F8E493A3C8C582C8CAC583CAA3
:10087C00F0A3C8C582C8CAC583CADFE9DEE780BE5B
:010A3F0000B6
:00000001FF
